{
  "contractName": "Faucet",
  "abi": [
    {
      "inputs": [],
      "name": "numOfFunders",
      "outputs": [
        {
          "internalType": "uint256",
          "name": "",
          "type": "uint256"
        }
      ],
      "stateMutability": "view",
      "type": "function",
      "constant": true
    },
    {
      "stateMutability": "payable",
      "type": "receive",
      "payable": true
    },
    {
      "inputs": [],
      "name": "addFunds",
      "outputs": [],
      "stateMutability": "payable",
      "type": "function",
      "payable": true
    },
    {
      "inputs": [
        {
          "internalType": "uint256",
          "name": "withdrawAmount",
          "type": "uint256"
        }
      ],
      "name": "withdraw",
      "outputs": [],
      "stateMutability": "nonpayable",
      "type": "function"
    },
    {
      "inputs": [],
      "name": "getAllFunders",
      "outputs": [
        {
          "internalType": "address[]",
          "name": "",
          "type": "address[]"
        }
      ],
      "stateMutability": "view",
      "type": "function",
      "constant": true
    },
    {
      "inputs": [
        {
          "internalType": "uint8",
          "name": "index",
          "type": "uint8"
        }
      ],
      "name": "getFunderAtIndex",
      "outputs": [
        {
          "internalType": "address",
          "name": "",
          "type": "address"
        }
      ],
      "stateMutability": "view",
      "type": "function",
      "constant": true
    }
  ],
  "bytecode": "0x608060405234801561001057600080fd5b506107ff806100206000396000f3fe60806040526004361061004e5760003560e01c80630a93cf33146100625780632e1a7d4d1461009f5780636fbbb55d146100c8578063a26759cb146100f3578063af7f2c9b146100fd5761005d565b3661005d5761005b610128565b005b600080fd5b34801561006e57600080fd5b506100896004803603810190610084919061045a565b610246565b60405161009691906104c8565b60405180910390f35b3480156100ab57600080fd5b506100c660048036038101906100c19190610519565b610286565b005b3480156100d457600080fd5b506100dd61031d565b6040516100ea9190610604565b60405180910390f35b6100fb610128565b005b34801561010957600080fd5b50610112610416565b60405161011f9190610635565b60405180910390f35b6000339050600160008273ffffffffffffffffffffffffffffffffffffffff1673ffffffffffffffffffffffffffffffffffffffff16815260200190815260200160002060009054906101000a900460ff166102435760008060008154809291906101929061067f565b91905055905060018060008473ffffffffffffffffffffffffffffffffffffffff1673ffffffffffffffffffffffffffffffffffffffff16815260200190815260200160002060006101000a81548160ff021916908315150217905550816002600083815260200190815260200160002060006101000a81548173ffffffffffffffffffffffffffffffffffffffff021916908373ffffffffffffffffffffffffffffffffffffffff160217905550505b50565b6000600260008360ff16815260200190815260200160002060009054906101000a900473ffffffffffffffffffffffffffffffffffffffff169050919050565b8067016345785d8a00008111156102d2576040517f08c379a00000000000000000000000000000000000000000000000000000000081526004016102c99061074b565b60405180910390fd5b3373ffffffffffffffffffffffffffffffffffffffff166108fc839081150290604051600060405180830381858888f19350505050158015610318573d6000803e3d6000fd5b505050565b60606000805467ffffffffffffffff81111561033c5761033b61076b565b5b60405190808252806020026020018201604052801561036a5781602001602082028036833780820191505090505b50905060005b60005481101561040e576002600082815260200190815260200160002060009054906101000a900473ffffffffffffffffffffffffffffffffffffffff168282815181106103c1576103c061079a565b5b602002602001019073ffffffffffffffffffffffffffffffffffffffff16908173ffffffffffffffffffffffffffffffffffffffff168152505080806104069061067f565b915050610370565b508091505090565b60005481565b600080fd5b600060ff82169050919050565b61043781610421565b811461044257600080fd5b50565b6000813590506104548161042e565b92915050565b6000602082840312156104705761046f61041c565b5b600061047e84828501610445565b91505092915050565b600073ffffffffffffffffffffffffffffffffffffffff82169050919050565b60006104b282610487565b9050919050565b6104c2816104a7565b82525050565b60006020820190506104dd60008301846104b9565b92915050565b6000819050919050565b6104f6816104e3565b811461050157600080fd5b50565b600081359050610513816104ed565b92915050565b60006020828403121561052f5761052e61041c565b5b600061053d84828501610504565b91505092915050565b600081519050919050565b600082825260208201905092915050565b6000819050602082019050919050565b61057b816104a7565b82525050565b600061058d8383610572565b60208301905092915050565b6000602082019050919050565b60006105b182610546565b6105bb8185610551565b93506105c683610562565b8060005b838110156105f75781516105de8882610581565b97506105e983610599565b9250506001810190506105ca565b5085935050505092915050565b6000602082019050818103600083015261061e81846105a6565b905092915050565b61062f816104e3565b82525050565b600060208201905061064a6000830184610626565b92915050565b7f4e487b7100000000000000000000000000000000000000000000000000000000600052601160045260246000fd5b600061068a826104e3565b91507fffffffffffffffffffffffffffffffffffffffffffffffffffffffffffffffff8214156106bd576106bc610650565b5b600182019050919050565b600082825260208201905092915050565b7f596f752063616e277420776974686472617720757020746f207468697320616d60008201527f6f756e7400000000000000000000000000000000000000000000000000000000602082015250565b60006107356024836106c8565b9150610740826106d9565b604082019050919050565b6000602082019050818103600083015261076481610728565b9050919050565b7f4e487b7100000000000000000000000000000000000000000000000000000000600052604160045260246000fd5b7f4e487b7100000000000000000000000000000000000000000000000000000000600052603260045260246000fdfea2646970667358221220b0d8d28688a7b2d619a0091b47d3c3b9bd1807da7e61d7fc6a2fefd37b50a68264736f6c634300080a0033",
  "immutableReferences": {},
  "source": "pragma solidity >=0.4.22 <0.9.0;\r\n\r\ncontract Faucet {\r\n    uint256 public numOfFunders;\r\n    mapping(address => bool) private funders;\r\n    mapping(uint256 => address) private lutFunders;\r\n\r\n    receive() external payable {\r\n        addFunds();\r\n    }\r\n\r\n    modifier limitWithdraw(uint256 withdrawAmount) {\r\n        require(\r\n            withdrawAmount <= (0.1 * 10 **18),\r\n            \"You can't withdraw up to this amount\"\r\n        );\r\n        _;\r\n    }\r\n\r\n    function addFunds() public payable {\r\n        address funder = msg.sender;\r\n\r\n        if (!funders[funder]) {\r\n            uint256 index = numOfFunders++;\r\n            funders[funder] = true;\r\n            lutFunders[index] = funder;\r\n        }\r\n    }\r\n\r\n    function withdraw(uint256 withdrawAmount)\r\n        external\r\n        limitWithdraw(withdrawAmount)\r\n    {\r\n        // withdrawAmount will be transferred to the address calling it and \r\n        // throws an exception if transfer is not successful\r\n        payable(msg.sender).transfer(withdrawAmount);\r\n    }\r\n\r\n    function getAllFunders() external view returns (address[] memory) {\r\n        address[] memory _funders = new address[](numOfFunders);\r\n\r\n        for (uint256 i = 0; i < numOfFunders; i++) {\r\n            _funders[i] = lutFunders[i];\r\n        }\r\n\r\n        return _funders;\r\n    }\r\n\r\n    function getFunderAtIndex(uint8 index) external view returns (address) {\r\n        return lutFunders[index];\r\n    }\r\n\r\n}\r\n\r\n// const faucet = await Faucet.deployed()\r\n// const accounts = await web3.eth.getAccounts()\r\n// faucet.sendTransaction({from: accounts[0], value: web3.utils.toWei('1', 'ether')})",
  "sourcePath": "C:\\Users\\LanreAkintayo\\Visual Studio code projects\\faucet\\contracts\\Faucet.sol",
  "compiler": {
    "name": "solc",
    "version": "0.8.10+commit.fc410830.Emscripten.clang"
  },
  "schemaVersion": "3.4.4",
  "updatedAt": "2022-03-06T16:58:46.091Z",
  "networkType": "ethereum",
  "devdoc": {
    "kind": "dev",
    "methods": {},
    "version": 1
  },
  "userdoc": {
    "kind": "user",
    "methods": {},
    "version": 1
  }
}